:020000040800F2
:10000000A8AA002061020008B5760008C9610008AE
:10001000B1760008B115000851B0000800000000DA
:10002000000000000000000000000000A101000826
:100030000322000800000000FD010008C9A4000818
:100040007B0200087B0200087B0200087B0200089C
:100050007B0200087B020008052200087B020008E2
:100060007B0200080F220008192200087B0200080A
:100070007B0200087B0200087B0200087B0200086C
:100080007B0200087B0200087B0200087B0200085C
:10009000B51500087B0200087B0200082322000837
:1000A0007B0200087B0200087B0200087B0200083C
:1000B0007B0200087B0200087B0200087B0200082C
:1000C0007B0200087B0200087B0200087B0200081C
:1000D0007B020008A1AC00087B020008E5AD000827
:1000E0007B0200087B0200087B0200087B020008FC
:1000F0007B0200087B0200087B020008D117000881
:100100007B0200087B0200087B0200087B020008DB
:100110007B0200087B0200087B0200087B020008CB
:100120007B0200084D1800085D1800087B020008DB
:100130007B0200087B0200087B0200087B020008AB
:10014000C51500087B0200087B0200087B0200083E
:10015000F5200008052100081521000815AF00084A
:100160007B0200087B0200087B0200087B0200087B
:100170007B0200087B0200087B02000800000000F0
:100180007B0200087B020008DFF810D000F040FC82
:1001900000480047B71E0108AFF30080A8AA00205E
:1001A0002C4B19680868B0E8F04F80F30988BFF35A
:1001B0006F8F4FF0000080F311887047000000003F
:1001C00008480068006880F308884FF0000080F35A
:1001D000148862B661B6BFF34F8FBFF36F8F00DF35
:1001E00000BF00BF08ED00E0DFF80C00016841F43B
:1001F00070010160704700BF88ED00E0EFF30980F7
:10020000BFF36F8F134B1A681EF0100F08BF20ED5D
:10021000108A20E9F04F106009B44FF0500080F3CD
:100220001188BFF34F8FBFF36F8F14F0ABFB4FF00C
:10023000000080F3118809BC19680868B0E8F04F25
:100240001EF0100F08BFB0EC108A80F30988BFF3CE
:100250006F8F7047BC030020EFF3058070470000EC
:100260000648804706480047FEE7FEE7FEE7FEE750
:10027000FEE7FEE7FEE7FEE7FEE7FEE7A9A50008CA
:10028000890100089FED1A1AF5EE000A40EE010AF6
:10029000BDEEE00AF5EEC00A10EE100AF1EE10FA1B
:1002A00038BF401E00EE100A1349F7EE001AB8EEF0
:1002B000C00A30EEC00ADFED0F0A20EE200AFCEE85
:1002C000C00A10EE900AC0F3080000EE900A01EB9D
:1002D0008000F8EE600A90ED011A70EE600A90ED71
:1002E000000A71EEE01A21EE800A00EE810A7047E2
:1002F00083F9223E00000044485D0108DFED190A41
:10030000B5EEC00A60EE200ABDEEE01A11EE100A4A
:10031000F1EE10FA38BF401E00EE100A1349F7EE56
:10032000001AB8EEC00A30EEC00ADFED0F0A60EE28
:10033000200ABCEEE00A10EE100AC0F3080000EE3E
:10034000100A01EB8000B8EE400A90ED011A70EE41
:10035000C00A90ED000A71EEE01A21EE800A00EE6C
:10036000810A704783F9223E00000044485D01087D
:100370002DE9F05F0546002092469B4688460646DA
:10038000814640241BE0284641464746224600F06D
:1003900060FA53465A46C01A914110D31146184686
:1003A000224600F047FA2D1A67EB01084F46224615
:1003B0000120002100F03EFA17EB00094E41201EFB
:1003C000A4F10104DFDC484631462A464346BDE835
:1003D000F09F40EA01039B0703D009E008C9121F00
:1003E00008C0042AFAD203E011F8013B00F8013BEF
:1003F000521EF9D27047D2B201E000F8012B491E1B
:10040000FBD270470022F6E710B513460A460446B1
:100410001946FFF7F0FF204610BD421C10F8011BE3
:100420000029FBD1801A70472DE9FE4F804681EAF2
:100430000300C00F0C46009021F0004123F000455E
:10044000B8EB0200A94105D24046214690461C4621
:100450000B46024623F00040104347D0270DC7F358
:100460000A00C3F30A510290401A019040286BDA47
:10047000C3F3130040F4801B0098924620B1002380
:10048000D2EB030A63EB0B0B01985946C0F1400213
:10049000504600F0CFF906460D4650465946019A9F
:1004A00000F0E7F910EB08006141002487EA1152DF
:1004B00084EAE7731A4340D0009A62B3019A012A92
:1004C0004FEA075215DC001B61EB02014FF00042BE
:1004D00002EA0752CDE90042001C41F58011324684
:1004E0002B4600F047FA03B0BDE8F08F40462146A6
:1004F000F9E7001B61EB0201001C41F580130018B5
:100500005B412018A2F5001747EB030140EAD570C4
:10051000B6196D4111E06D084FEA360645EAC0751F
:100520004FEA0752001B61EB0201001C41F58011EC
:1005300049084FEA30000019514132462B4603B0BA
:10054000BDE8F04F00F007BA0098012240000023F8
:10055000D0EB020263EBE073009821464FEAE074AF
:10056000B8EB000061EB0401E9E783F000435BE7CF
:1005700081F0004158E72DE9FE4F81EA030404F0C1
:10058000004421F0004100944FF0000B23F00043A1
:1005900050EA01045ED052EA03045BD0C3F30A546C
:1005A000C1F30A552C44A4F2F3340194A0FB025485
:1005B000C1F3130141F48011C3F3130343F4801317
:1005C00001FB024400FB034E840A970A44EA81546B
:1005D00047EA8357A4FB076802958D0A05FB078548
:1005E0004FEA932C04FB0C542705029D4FEA065852
:1005F00047EA1637B5EB08056EEB070C870E920E2F
:1006000047EA811742EA8312A7FB0201B6EB0B010E
:1006100064EB00042B0D43EA0C335E1844EB1C50D2
:10062000DA465146E7FB0201C5F313044FEA0B33E8
:1006300043EA14534FEA0432019C43EA0603A4F14F
:100640000C040294009CCDE900B400F093F903B0CF
:10065000BDE8F08F00200146F9E72DE9F04D81EA71
:10066000030404F0004B21F0004514464FF0000A4B
:1006700023F0004150EA050220D054EA01021DD0C7
:10068000C5F30A570246C5F31303C1F31300C1F3C0
:100690000A5640F4801543F48013A7EB0608101B9C
:1006A000D64608F2FD3873EB050002D308F10108C5
:1006B00001E092185B41B8F1000F03DA0020014617
:1006C000BDE8F08D00204FF48011064684460EE010
:1006D000171B73EB050705D3121B63EB05030643DA
:1006E0004CEA010C49084FEA300092185B4150EA8D
:1006F0000107EDD152EA030012D082EA040083EA36
:100700000501084305D0101BAB4106D2012200238E
:1007100006E000224FF0004302E06FF001025310A8
:100720001AEB06004CEB085110EB0A0041EB0B01F1
:10073000BDE8F04D00F00FB90EB5C10F80EAE070D2
:100740000844CA07002140F233438DE80E000A46F0
:100750000B4600F00FF903B000BD0EB540F2334177
:1007600002910021CDE900110A460B4600F002F982
:1007700003B000BD00F0004230F000400AD0C10DCF
:1007800001F56071C0F3160042EA0151C20840074A
:1007900011437047002001467047000030B5041E29
:1007A00071F1000404DB4FF00044404264EB0101AE
:1007B000141E73F1000405DB1C464FF00043524247
:1007C00063EB04038B4208BF824230BD30B5041E88
:1007D00071F1000404DB4FF00044404264EB01017E
:1007E000141E73F1000405DB1C464FF00043524217
:1007F00063EB0403994208BF904230BD01F000430F
:1008000030B421F0004150EA010206D00A0DA2F5F1
:100810006072C1F31301002A02DC30BC0020704773
:10082000440F44EAC104C100E01830BC00EBC250E0
:1008300000F031B8202A04DB203A00FA02F100204F
:1008400070479140C2F1200320FA03F3194390400E
:100850007047202A04DB203A21FA02F00021704779
:1008600021FA02F3D040C2F1200291400843194618
:100870007047202A06DBCB17203A41FA02F043EA00
:10088000E07306E041FA02F3D040C2F12002914049
:100890000843194670470029A8BF7047401C49000B
:1008A00008BF20F00100704710B4B0FA80FC00FAD5
:1008B0000CF050EA010404BF10BC704749B1CCF100
:1008C000200421FA04F411FA0CF118BF012121438C
:1008D0000843A3EB0C01CB1D4FEA00614FEA102047
:1008E00042BF002010BC704700EBC35010440029E9
:1008F000A4BF10BC7047401C490008BF20F0010095
:1009000010BC7047F0B400F0004221F0004120F02C
:100910000040CE0DC30DC1F3160141F40001C0F338
:1009200016004C42154640F40000761E09E010EB1C
:10093000440002D582F0004240428842F7D840008D
:100940005B1EB342F9DA18B1F0BC0021FFF7ACBF6F
:100950002846F0BC704710B5141E73F1000408DA85
:10096000401C41F1000192185B411A4301D120F073
:10097000010010BD2DE9F04D92469B4611B1B1FA30
:1009800081F202E0B0FA80F220329046FFF752FF87
:1009900004460F4640EA0A0041EA0B0153465A4614
:1009A000084313D0114653EA010019D0C8F14002A0
:1009B0005046FFF74EFF05460E4650465946424602
:1009C000FFF738FF084305D0012004E020463946F0
:1009D000BDE8F08D0020054346EAE0762C4337431E
:1009E0000A986305E40AA0EB08000022FD0A44EA25
:1009F00047540A3002D500200146E9E701051019E5
:100A00006941DDE9084500196941BDE8F04DA2E7FB
:100A1000064C074D06E0E06840F0010394E807004B
:100A200098471034AC42F6D3FFF7B2FBB06601082A
:100A3000D066010870B5C1F30A5201F000450024E8
:100A4000C1F3130140F2FF3341F480119A4201DAFD
:100A5000002070BD40F233439A42A2F2334203DCDD
:100A60005242FFF7F6FE00E090402C43F1D04042A6
:100A700070BD70B58C1810F8015B15F0070301D13B
:100A800010F8013B2A1106D110F8012B03E010F8F1
:100A9000016B01F8016B5B1EF9D12B0705D4002314
:100AA000521E0DD401F8013BFAE710F8013BCB1AB6
:100AB000921C03E013F8015B01F8015B521EF9D5AB
:100AC000A142D8D3002070BD55494A6822F4403273
:100AD0004A604A6843681A434A600268526822F4CE
:100AE000807203685A6002685368026943EA02220E
:100AF00003685A600268526822F0407203685A60C4
:100B00000268526883681A4303685A6002689268F0
:100B100022F4006203689A6002689268C3681A430C
:100B200003689A603F4B826A9A4218D002689268C2
:100B300022F0706203689A6002689268836A1A43BE
:100B400003689A600268926822F0405203689A60D3
:100B500002689268C36A1A4303689A600BE00268ED
:100B6000926822F0706203689A600268926822F0CC
:100B7000405203689A600268926822F00202036899
:100B80009A6002689368027E43EA420203689A60B0
:100B90002022125CA2B10268526842F4006203682B
:100BA0005A600268526822F4604203685A60026820
:100BB0005368426A521E43EA423203685A6005E0B3
:100BC0000268526822F4006203685A600268D26ABE
:100BD00022F470020368DA620268D36A828B521EC2
:100BE00043EA02520368DA620268926822F40072F1
:100BF00003689A600268936890F8302043EA4222C2
:100C000003689A600268926822F4806203689A60BE
:100C100002689368426943EA822203689A607047D7
:100C2000002301400100000F10B52DED028BB0EE46
:100C3000408AB0EE480A0AF059FABDEC028B10BDAA
:100C400010B52DED028BB0EE408AF0EE608AF0EE2A
:100C5000680AB0EE480A0AF0DFFABDEC028B10BD5C
:100C600010B52DED028BB0EE408AB0EE480AFFF7CA
:100C700009FBBDEC028B10BDF0EE400AF5EEC00A98
:100C8000F1EE10FA02DDB0EE600A7047B1EE600AD4
:100C9000FBE7000018B19FED020A80ED000A7047E3
:100CA0000000000018B1B3EE060A80ED000A70479C
:100CB00070B52DED0C8B84B006460C4615469FEDA5
:100CC000990AF0EE408A9FED970AB0EE409A9FEDA8
:100CD000950AF0EE40BA9FED930AF0EE409A9FED30
:100CE000910AB0EE40AA0EB104B11DB904B0BDEC3A
:100CF0000C8B70BD8C48FFF7CDFF8C48FFF7D2FFFF
:100D00008A48D0ED000A9FED8A1A60EE810AB0EEA3
:100D1000600A00F02DF9F0EE408A28EEA80AF0EE05
:100D2000408A8248D0ED000AB0EE001A60EE810AD7
:100D30009FED7F1A60EE810AB0EE600A00F018F9AC
:100D4000B0EE409A29EE090AB0EE409ADFED790A3A
:100D5000B7EE000A00EEA80ADFED770A00EEC90A36
:100D6000DFED760A20EE200A754880ED000A6E4815
:100D700090ED000ADFED730A80EE201AB7EE000A4C
:100D800031EE000A20EE000A6D48D0ED000A80EE38
:100D9000801A6D4880ED001A94ED000AB5EEC00A85
:100DA000F1EE10FA0DD194ED010AB5EEC00AF1EEA4
:100DB00010FA06D194ED020AB5EEC00AF1EE10FA6F
:100DC00046D09FED580AB0EE408A00200190029074
:100DD0000390D4ED000A60EEA00A94ED011AD4ED60
:100DE000011A41EE210A94ED021AD4ED021A41EEE5
:100DF000210AB0EE600A00F0A9F8B0EE408A94ED46
:100E0000000A20EE080A8DED010A94ED010A20EE99
:100E1000080A8DED020A94ED020A20EE080A8DED13
:100E2000030ADDED010AF1EE600AB0EE600AFFF799
:100E3000FBFEF0EE409A9DED031AF0EE410A9DEDA7
:100E4000021AB0EE410AFFF7FBFEB0EE40AA07E03F
:100E50009FED340AF0EE409A9FED320AB0EE40AAC0
:100E600095ED000AB5EEC00AF1EE10FA0DD195ED40
:100E7000010AB5EEC00AF1EE10FA06D195ED020AAC
:100E8000B5EEC00AF1EE10FA3CD0B0EE690A00F0FF
:100E90006FF8B0EE408AB0EE690AFFF7E1FEB0EEFF
:100EA00040DAB0EE4A0A00F063F8F0EE40AAB0EE85
:100EB0004A0AFFF7D5FEB0EE40BA28EE2A0AD5ED71
:100EC000010A20EE200AD5ED000A0DEE200A68EE98
:100ED0000B0A95ED021A00EE810AB0EE40CA95EDBC
:100EE000010A20EE0B0AD5ED020A0AEEE00AF0EE46
:100EF00040CAF0EE6C0AB0EE4C0AFFF7A1FEF0EE2D
:100F000040BA03E09FED070AF0EE40BAB0EE4A1A8D
:100F1000F0EE690AB0EE6B0A30460BF029FA00BF1A
:100F2000E4E600000000000030040020340400204B
:100F300035FA8E3CC1BFAD3B9DF8C5362F7C1C41B8
:100F400038040020506CC24A3C04002010B52DED3E
:100F5000028BB0EE408AB0EE480A0AF0E1FBB7EE31
:100F6000001AC1EE000AB0EE600ABDEC028B10BDA3
:100F700010B52DED028BB0EE408AB0EE480AFFF7B7
:100F8000BDF9BDEC028B10BD2DE9F0412DED028BBA
:100F90009AB00546B0EE408A0E46174698460020A5
:100FA0001790189019901490159016904DB146B165
:100FB0003FB1B8F1000F04D0B5EEC08AF1EE10FADF
:100FC00005D100201AB0BDEC028BBDE8F08196ED92
:100FD000000A8DED170A96ED010A8DED180A96EDBF
:100FE000020A8DED190A97ED000A8DED140A97EDAE
:100FF000010A8DED150A97ED020A8DED160A17AA62
:1010000014A928460BF006F8402104A8FFF7FAF9C6
:1010100000200090019002900390002417A904A8DA
:1010200012F08EFE00BF30E004A800EB041090ED3B
:10103000000AD5ED000A20EE200A04A800EB0410F7
:10104000D0ED010A95ED011A00EE810A04A800EB2B
:101050000410D0ED020A95ED021A00EE810A04A8F0
:1010600000EB0410D0ED030A95ED031A00EE810A9F
:1010700020EE080AF0EE000A80EE201A684600EB27
:10108000840080ED001A601CC4B2042CCCDB002468
:1010900010E005EB840090ED000A684600EB840048
:1010A000D0ED000A30EE200A05EB840080ED000A46
:1010B000601CC4B2042CECDB284611F0C5FD0120F5
:1010C00080E700007FB5002400260025AA222146E3
:1010D000641C464842542146641C4254F122214675
:1010E000641C425410222146641C42549DF8012085
:1010F0002146641C42549DF800202146641C425441
:101100009DF805202146641C42549DF80420204689
:10111000611CCCB235490A549DF809202146601C57
:10112000C4B2324842549DF808202146601CC4B223
:101130002E4842549DF80D202046611CCCB22B490C
:101140000A549DF80C202046611CCCB227490A5451
:101150009DF821202046611CCCB224490A549DF8F8
:1011600020202046611CCCB220490A549DF825203D
:101170002046611CCCB21D490A549DF8242020460B
:10118000611CCCB219490A549DF829202046611CE3
:10119000CCB216490A549DF828202146601CC4B2DE
:1011A000124842549DF82D202046611CCCB20F49B4
:1011B0000A549DF82C202046611CCCB20B490A54DD
:1011C00000BF00BF05E00948405D3044C6B2681C5E
:1011D000C5B2A542F7DB2046611CCCB203490E54D0
:1011E0002146024812F08CFE7FBD0000B825002089
:1011F00010B501221021024802F0E8FD10BD0000E8
:101200000000024010B500221021024802F0DEFD6D
:1012100010BD0000000002407047000010B5012220
:101220001146024802F0D2FD10BD00000004024049
:1012300010B500220121024802F0C8FD10BD0000D7
:101240000004024010B543781B021BB2047823430C
:1012500000EE103AB8EEC01A1C4BD3ED001A21EE86
:10126000211A81ED001AC3781B021BB28478234334
:1012700000EE103AB8EEC01A144BD3ED001A21EE6E
:10128000211A81ED011A43791B021BB20479234311
:1012900000EE103AB8EEC01A0C4BD3ED001A21EE56
:1012A000211A81ED021A037A1B04C47943EA04234C
:1012B0008479234300EE903AB8EE601ADFED041A09
:1012C00021EE211A82ED001A10BD000068030020F3
:1012D00000401C42704710B50446204610F04CFEFA
:1012E00010BD10B5044620460CF076FF10BD00007E
:1012F0004278120212B203781A4300EE102AF8EE76
:10130000C00A144A92ED001A60EE810AC1ED000A8B
:10131000C278120212B283781A4300EE102AF8EE55
:10132000C00A0C4A92ED001A60EE810AC1ED010A72
:101330004279120212B203791A4300EE102AF8EE33
:10134000C00A044A92ED001A60EE810AC1ED020A59
:10135000704700006C03002010B50024FFF75CFF0D
:10136000FFF7B8FF0BF07EF910B144F0800402E003
:101370000BF0DEF804430BF06DFB10B144F04004B9
:1013800002E00BF0EDFA0443204610BD2DE9FC41CC
:1013900005460E461746002000900190FFF732FFE9
:1013A000922000F0D1F806226946122000F0ACF835
:1013B000FFF71EFF9DF80100000200B29DF800102B
:1013C00040EA010400EE104AB8EEC00A4C48D0EDE5
:1013D000000A20EE200A86ED000A9DF803000002B4
:1013E00000B29DF8021040EA010400EE104AB8EE87
:1013F000C00A4348D0ED000A20EE200A86ED010A1B
:101400009DF80500000200B29DF8041040EA0104B6
:1014100000EE104AB8EEC00A3948D0ED000A20EEBE
:10142000200A86ED020AFFF703FF08226946002022
:1014300000F06AF8FFF7F2FE9DF800000F2838D19F
:101440009DF80300000200B29DF8021040EA01047A
:1014500000EE104AB8EEC00A2A48D0ED000A20EE8D
:10146000200A85ED000A9DF80500000200B29DF8F3
:10147000041040EA010400EE104AB8EEC00A214808
:10148000D0ED000A20EE200A85ED010A9DF8070044
:10149000000200B29DF8061040EA010400EE104A76
:1014A000B8EEC00A1748D0ED000A20EE200A85EDFC
:1014B000020AFFF7A7FEA22000F046F802226946C2
:1014C000222000F021F8FFF793FE9DF80000C000F5
:1014D0009DF8011040EA6114B4F5806F02DBA4F5B9
:1014E000006004B200EE104AF8EEC00AB4EE001A32
:1014F000B3EE070A00EE810A87ED000ABDE8FC8121
:10150000680300206C03002070B506460C461546A3
:1015100046F0800000F018F806E0552000F014F8BE
:101520002070641C681EC5B2002DF6D170BD70B568
:1015300004460D4644F0800000F006F8552000F007
:1015400003F8287070BD000001B582B04FF47A70C6
:10155000012301AA02A90090024803F053FF9DF85D
:1015600004000EBD2820002010B502461378DB00D1
:10157000547843EA6410B0F5806F02DBA0F5006395
:1015800018B200EE100AF8EEC00AB4EE001AB3EE7C
:10159000070A00EE810A81ED000A10BD70B505460C
:1015A0000C462846FFF7D0FF2046FFF7CDFF70BD61
:1015B00000BFFEE710B5024801F0EBFA10BD0000D5
:1015C0004C1E002010B5024801F0E3FA10BD0000E7
:1015D000741E0020F8B507460C4615461E464FF40B
:1015E00000700D49086000208860C860082008610C
:1015F000380A0A4908704F70200A8870CC70280A8F
:1016000008714D71300A8871CE716B460A460249E5
:10161000034801F0C2F8F8BDB42700200C030020F5
:10162000741E002038B505460C464FF400700D4975
:10163000086000208860C8600820086100200A490E
:1016400008704870280A8870CD70200A08714C71A3
:1016500000208871C8716B460A460249034801F0B0
:101660009CF838BD9C270020040300204C1E00205D
:1016700038B504460D4640F2FF201A4908600020A4
:101680008860C86008200861002017490870487009
:10169000280A8870CD700020087148718871C8715F
:1016A0006B460A460F49114801F077F840F2FF20D7
:1016B0000C49086000208860C86008200861200A82
:1016C000094908704C7000208870C8700871487112
:1016D0008871C8716B460A460249054801F05DF8F9
:1016E00038BD00009C270020040300204C1E002071
:1016F000741E002038B5044640F2FF100C49086003
:1017000000208860C86008200861200A0949087024
:10171000200A487000208870C8708871487108716C
:10172000C8716B460A460249034801F036F838BDD5
:101730009C270020040300204C1E002010B52DED36
:10174000028B04462188B4F90820881AFEF7F4FFBA
:1017500041EC180B9FED190B53EC102BFFF736F8EB
:1017600003D2E068401EE06011E02188B4F908204F
:10177000881AFEF7E1FF41EC180B9FED120B53ECBA
:10178000102BFFF70BF802D2E068401CE060E06825
:10179000C0EB4030B4F90810084400EE100AB8EE6F
:1017A000C00ADFED0A0A20EE200AF3EE030A80EEFB
:1017B000201A84ED041ABDEC028B10BD000000005D
:1017C00000FFAF400000000000FFAFC0A005343DA7
:1017D0001B48406800F0006080B31A48406B006806
:1017E0001949884205D94FF0006017494C39086003
:1017F0001CE01448406B00681149B831884205D993
:101800004FF000601049503908600FE00D48406B00
:1018100000680B495831884204D94FF000600849EC
:10182000C86003E04FF00060054988600548006823
:10183000006840F4007003490968086070470000C0
:1018400000600240F01E00205864024010B50248BB
:1018500001F0EEFE10BD0000F824002010B5FE4897
:10186000C06C0068FD49884276D9FC48543800684D
:10187000F949C96C0968FA4A914201D1202169E00D
:10188000F549C96C0968F54A483A914201D12021CD
:1018900060E0F149C96C0968F14A6032914201D1B6
:1018A000202157E0EC49C96C0968EC4A1832914292
:1018B00001D120214EE0E849C96C0968E84A183294
:1018C000914201D1C91445E0E349C96C0968E34A72
:1018D000303A914201D1C9143CE0DF49C96C096832
:1018E000DF4A7832914201D1C91433E0DA49C96C38
:1018F0000968DA4A3032914201D1C9142AE0D64946
:10190000C96C0968D64A3032914202D14FF40011B5
:1019100020E0D149C96C0968D04A183A914202D1F5
:101920004FF4001116E0CC49C96C0968CC4A9032DA
:10193000914202D14FF400110CE0C749C96C09680B
:10194000C64A4832914203D14FF4001102E003E04D
:101950004FF00061084070E1BF48C06C0068C049AA
:10196000A831884276D9BD4858380068BA49C96C50
:101970000968BB4A914201D1202169E0B649C96C8E
:101980000968B64A483A914201D1202160E0B24943
:10199000C96C0968B24A6032914201D1202157E0F6
:1019A000AD49C96C0968AD4A1832914201D1202174
:1019B0004EE0A949C96C0968A94A1832914201D17F
:1019C000C91445E0A449C96C0968A44A303A914257
:1019D00001D1C9143CE0A049C96C0968A04A783219
:1019E000914201D1C91433E09B49C96C09689B4AF3
:1019F0003032914201D1C9142AE09749C96C096873
:101A0000974A3032914202D14FF4001120E09249BE
:101A1000C96C0968914A183A914202D14FF40011F9
:101A200016E08D49C96C09688D4A9032914202D105
:101A30004FF400110CE08849C96C0968874A4832A4
:101A4000914203D14FF4001102E003E04FF0006136
:101A50000840F2E08048C06C006881494831884203
:101A600076D97F48103840687B49C96C09687C4A40
:101A7000914201D1202169E07749C96C0968774A10
:101A8000483A914201D1202160E07349C96C09684C
:101A9000734A6032914201D1202157E06E49C96CEE
:101AA00009686E4A1832914201D120214EE06A49FC
:101AB000C96C09686A4A1832914201D1C91445E0DB
:101AC0006549C96C0968654A303A914201D1C91427
:101AD0003CE06149C96C0968614A7832914201D1A0
:101AE000C91433E05C49C96C09685C4A30329142E0
:101AF00001D1C9142AE05849C96C0968584A3032E2
:101B0000914202D14FF4001120E05349C96C096899
:101B1000524A183A914202D14FF4001116E04E4950
:101B2000C96C09684E4A9032914202D14FF40011BB
:101B30000CE04949C96C0968484A4832914203D1CE
:101B40004FF4001102E003E04FF00061084074E040
:101B50004348103800684049C96C0968404A9142BE
:101B600001D1202168E03C49C96C09683B4A483AE8
:101B7000914201D120215FE03749C96C0968384A98
:101B80006032914201D1202156E03349C96C096885
:101B9000324A1832914201D120214DE02E49C96CC0
:101BA00009682F4A1832914201D1C91444E02A49E8
:101BB000C96C0968294A303A914201D1C9143BE005
:101BC0002549C96C0968264A7832914201D1C91465
:101BD00032E02149C96C0968204A3032914201D172
:101BE000C91429E01C49C96C09681D4A3032914268
:101BF00002D14FF400111FE01749C96C0968174A58
:101C0000183A914202D14FF4001115E01249C96C03
:101C10000968134A9032914202D14FF400110BE04F
:101C20000D49C96C09680D4A4832914202D14FF4FE
:101C3000001101E04FF00061084000286FD0064815
:101C4000C06C0068054988427BD90348C06C0068B5
:101C50000349884208D105E028200020586402404A
:101C600010600240202068E0FE48C06C0068FE4919
:101C7000884201D1202060E0FA48C06C0068FB492E
:101C8000884201D1202058E0F648C06C0068F6492F
:101C90006031884201D120204FE0F248C06C0068DA
:101CA000F2494839884201D1C01446E0ED48C06C81
:101CB0000068ED491831884201D1C0143DE0E9487F
:101CC000C06C0068E9491831884201D1C01434E081
:101CD000E448C06C0068E4497831884201D1C014FE
:101CE0002BE0E048C06C0068E0493039884202D1FE
:101CF0004FF4001021E0DB48C06C0068DA49303155
:101D0000884202D14FF4001017E0D648C06C00683A
:101D1000D6493031884204D14FF400100DE0DFE1A4
:101D20000FE0D048C06C0068CF499031884202D1A2
:101D30004FF4001001E04FF00060CB49091F08602C
:101D40006AE1C848C06C0068C8494831884274D903
:101D5000C448C06C0068C5496039884201D1202060
:101D600066E0C048C06C0068BF49884201D12020AD
:101D70005EE0BC48C06C0068BC49884201D12020AC
:101D800056E0B848C06C0068B7496031884201D15C
:101D900020204DE0B348C06C0068B44948398842FF
:101DA00001D1C01444E0AF48C06C0068AE4918319E
:101DB000884201D1C0143BE0AA48C06C0068AB491E
:101DC0001831884201D1C01432E0A648C06C0068C6
:101DD000A5497831884201D1C01429E0A148C06CDE
:101DE0000068A2493039884202D14FF400101FE048
:101DF0009C48C06C00689C493031884202D14FF445
:101E0000001015E09748C06C00689849303188424E
:101E100002D14FF400100BE09248C06C0068924968
:101E20009031884202D14FF4001001E04FF0006081
:101E30008D4908390860EFE0FFE78A48C06C006808
:101E40008A491839884274D98648C06C0068874925
:101E50006039884201D1202066E08248C06C006869
:101E60008149884201D120205EE07E48C06C006834
:101E70007E49884201D1202056E07A48C06C006833
:101E800079496031884201D120204DE07548C06C0D
:101E9000006876494839884201D1C01444E071484D
:101EA000C06C006870491831884201D1C0143BE011
:101EB0006C48C06C00686D491831884201D1C0146B
:101EC00032E06848C06C006867497831884201D1C7
:101ED000C01429E06348C06C006864493039884206
:101EE00002D14FF400101FE05E48C06C00685E49EC
:101EF0003031884202D14FF4001015E05948C06CCF
:101F000000685A493031884202D14FF400100BE08A
:101F10005448C06C006854499031884202D14FF453
:101F2000001001E04FF0006050497039C86073E064
:101F3000FFE74C48C06C00684C496039884201D1C9
:101F4000202066E04748C06C00684749884201D1BC
:101F500020205EE04348C06C00684449884201D1BB
:101F6000202056E03F48C06C00683F4960318842FD
:101F700001D120204DE03B48C06C00683B49483906
:101F8000884201D1C01444E03648C06C006836492C
:101F90001831884201D1C0143BE03248C06C00685F
:101FA00032491831884201D1C01432E02D48C06C4A
:101FB00000682D497831884201D1C01429E02948B0
:101FC000C06C006829493039884202D14FF40010B2
:101FD0001FE02448C06C006823493031884202D198
:101FE0004FF4001015E01F48C06C00681F493031E5
:101FF000884202D14FF400100BE01A48C06C006810
:1020000019499031884202D14FF4001001E04FF09D
:1020100000601649703988601548007800F00200A9
:1020200078B11348007820F0020011490870084682
:10203000007840F004000870012211460D4801F0BC
:10204000C5FE0D48007800F00200E0B10A480078B3
:1020500020F00200084908700846007840F00400AB
:1020600008700BE0282000201064024070600240DD
:102070007501002000040240760100200122102199
:10208000184801F0A3FE1848007800F0020078B16B
:102090001548007820F002001349087008460078BF
:1020A00040F004000870012210210E4801F08EFE5D
:1020B0000FF0AEFC0D48007800F0040080B10B4832
:1020C000007820F00400094908700846007840F0C4
:1020D000080008700648006840F0010004490860E4
:1020E00010BD0000000002407701002075010020B3
:1020F000103C014010B5024801F09AFA10BD0000F2
:102100003824002010B5024801F092FA10BD0000FA
:102110005825002010B5024801F08AFA10BD0000D1
:10212000D82300200146087810381823B0FBF3F2BA
:102130000848805CC865032A05D908686FF3090060
:10214000001D886503E008686FF309008865886DE5
:10215000704700001C5D0108014600208A6A8B69F7
:10216000CBB932B1012A0DD0022A03D0032A10D1F3
:102170000EE000BFCB6A03F08073B3F1807F00D123
:10218000012007E0CB6AB3F1C07F00D1012001E05C
:1021900000E000BF34E08B69B3F5005F1AD132B1C3
:1021A000012A07D0022A03D0032A11D10AE000BF76
:1021B00001200EE0CB6A03F08073B3F1807F00D181
:1021C000012006E0CB6AB3F1C07F00D1012000E01E
:1021D00000BF15E032B1012A05D0022A04D0032A3B
:1021E0000CD103E000BF00BF012008E0CB6A03F080
:1021F0008073B3F1807F00D1012000E000BF00BFF9
:102200007047704710B5012001F0CAFC10BD10B531
:10221000082001F0C5FC10BD10B5102001F0C0FC75
:1022200010BD10B5202001F0BBFC10BD70470000B0
:1022300010B5002201B909E0012901D10A0205E027
:10224000022901D10A0201E04FF440720E4B1B68D3
:1022500023F440730C4C236023461B681343236014
:1022600023461B6823F0F803236023461B680224DF
:1022700044EAC0042343044C236023461B6843F410
:102280008033236010BD0000103C02401C480068F1
:1022900000F40070B0B11A48006820F400701849CA
:1022A000086000BF0846006840F400600860084607
:1022B000006820F40060086000BF0846006840F431
:1022C000007008600E48006800F48060B0B10C48EF
:1022D000006820F480600A49086000BF0846006872
:1022E00040F4805008600846006820F48050086080
:1022F00000BF0846006840F4806008607047000036
:10230000003C02400A4A126822F44072084B1A60EC
:102310001A46126842F004021A601A4612684FF414
:10232000803343EA00231A43014B1A6070470000D0
:10233000103C0240074A126822F44072054B1A60B2
:102340001A4612681A601A46126842F001021A60B0
:1023500001707047103C024010B50949096821F42A
:102360004071074C21602146096841F440712160A9
:102370002146096841F0010121600260436010BDFF
:10238000103C0240084A126822F44072064B1A6060
:102390001A46126842F480721A601A46126842F0B5
:1023A00001021A6001807047103C0240084A12681E
:1023B00022F44072064B1A601A46126842F4007208
:1023C0001A601A46126842F001021A6001607047F2
:1023D000103C02402348006800F0100040B1224841
:1023E000C06940F010002049C86110201D490860F4
:1023F0001C48006800F0200040B11B48C06940F054
:1024000008001949C861202016490860154800686D
:1024100000F0400040B11448C06940F00400124987
:10242000C86140200F4908600E48006800F0800035
:1024300040B10D48C06940F002000B49C8618020DE
:10244000084908600748006800F0020040B10648EB
:10245000C06940F020000449C861022001490860B9
:10246000704700000C3C02404828002070B504462C
:10247000002500201449C86101F0AEFC054609E0C2
:10248000601C38B124B101F0A7FC401BA04201D967
:10249000032070BD0D48006800F480300028EFD1A3
:1024A0000A48006800F0010010B1012007490860E7
:1024B0000648006800F0F20018B1FFF78BFF01201A
:1024C000E7E70020E5E70000482800200C3C024038
:1024D00038B502460020009000BF92F83C00012869
:1024E00001D1022038BD012082F83C0000BF0868FD
:1024F000092816D91068C0680C780A3C04EB44051A
:102500000724AC40A0431468E0600C780A3C04EB5C
:1025100044048868A0401468E46820431468E060BC
:1025200013E0106800690C7804EB44050724AC4004
:10253000A043146820610C7804EB44048868A04030
:10254000146824692043146820614868072817D25A
:102550001068406B0C79641E04EB84051F24AC40AA
:10256000A04314686063088880B20C79641E04EB91
:102570008404A0401468646B20431468606331E0F5
:1025800048680D2817D21068006B0C79E41F04EB23
:1025900084051F24AC40A04314682063088880B2DF
:1025A0000C79E41F04EB8404A0401468246B2043DE
:1025B0001468206316E01068C06A0C790D3C04EBC7
:1025C00084051F24AC40A0431468E062088880B2F0
:1025D0000C790D3C04EB8404A0401468E46A2043A9
:1025E0001468E062194B1A4C1068A04206D10868C2
:1025F000122803D1586840F480005860144C1068C9
:10260000A0421CD10868102802D00868112816D1F1
:10261000586840F400005860086810280FD10D4831
:1026200000680D4CB0FBF4F000EB8000400000901F
:1026300002E00098401E009000980028F9D100BFE9
:10264000002082F83C0000BF00BF4BE700230140A0
:1026500000200140B803002040420F0070B504463E
:1026600000250CB9012070BD1549A06A884200D030
:1026700000BF206C30B9204600F024F800206064D0
:1026800084F83C00206C00F0100088B9206C20F425
:10269000885040F0020020642046FEF715FA002022
:1026A0006064206C20F0020040F00100206400E033
:1026B000012500BF002084F83C0000BF2846D2E777
:1026C0000100000F10B586B00446142101A8FDF7E3
:1026D00099FE2349206888420FD100BF0020009056
:1026E0002048006840F480701E4908600846006871
:1026F00000F48070009000BF2FE01B4920688842E2
:102700002BD100BF002000901648006840F4806084
:10271000144908600846006800F48060009000BF1B
:1027200000BF00BF002000900E481438006840F041
:1027300020000C49143908600846006800F02000A9
:10274000009000BF00BF08150190032002900020F8
:10275000039001A9054801F031FA06B010BD000050
:102760000020014044380240002201400014024091
:1027700010B5024692F82030012B01D0022B06D171
:1027800010684069084314686061002010BD506AF9
:1027900040F4802050620120F8E7F0B504460D4671
:1027A0001E4694F8207020688368A86800B900E08D
:1027B00000BF012F01D0022F7CD103F0806030B91F
:1027C00003F0006018B903F08050002873D0C3F301
:1027D0000161022905D9606A40F4000060620120AD
:1027E000F0BD012088403060A86860B9B5F800C02D
:1027F000E86840EA4C5C206800F5C07000EB01100E
:10280000C0F800C00FE0D5E901C040EACC00D5F81F
:102810000CC040EA0C00D4F800C00CF5C07C0CEBF6
:10282000011CCCF80000D5F810C0206800F5C0707D
:1028300000EB0110C0F804C0287D01280ED12068EB
:1028400000F5C07000EB0110406840F4807C206807
:1028500000F5C07000EB0110C0F804C0D07900068C
:1028600092F806C040EA0C4092F805C040EA0C2CF1
:1028700010794CEA000C206800F5C07000EB0110E4
:10288000C0F80CC0D078000692F802C040EA0C40B4
:1028900092F801C040EA0C2092F800C040EA0C0017
:1028A000D4F800C00CF5C07C0CEB011CCCF808007F
:1028B000206801E016E00FE000F5C07000EB0110A9
:1028C000006840F0010C206800F5C07000EB0110BA
:1028D000C0F800C0002083E7606A40F40010606226
:1028E00001207DE7606A40F480206062012077E784
:1028F000F0B504460A46216894F82050012D01D015
:10290000022D7ED1424901F50071086840F00100B6
:102910000860086820F47C5008600868566A40EA3D
:1029200006200860107D00F01F06012000FA06F363
:10293000C8699843C861A1F50071D069C8B9D1F8D8
:102940000C029843C1F80C02908880B2968940EA44
:10295000064601F51070576940F83760108880B25C
:10296000168940EA064601F51070576900EBC7006A
:102970004660D069012819D1D1F80C021843C1F87A
:102980000C02908880B2168840EA064601F5107065
:10299000576940F83760908980B2168940EA064648
:1029A00001F51070576900EBC7004660906928B9BF
:1029B000D1F804029843C1F8040204E0D1F80402FB
:1029C0001843C1F80402106928B9D1F814029843D9
:1029D000C1F8140204E0D1F814021843C1F814023B
:1029E000106A012804D1D1F81C021843C1F81C0256
:1029F000D1F8000220F00100C1F800020020F0BD73
:102A0000FFE7606A40F4802060620120F7E7000081
:102A100000640040704770B5044694F82050012DC2
:102A200001D0022D7CD151B92068C06800F00300AC
:102A300080B9606A40F400106062012070BD2068B7
:102A4000006900F0030028B9606A40F40010606279
:102A50000120F3E7206800F5D87000EB0110006852
:102A600000F004009060906840B9206800F5D870CC
:102A700000EB01100068400D106007E0206800F5D1
:102A8000D87000EB01100068C0085060206800F5A5
:102A9000D87000EB0110006800F002004008D06020
:102AA000206800F5D87000EB0110406800F00F00BE
:102AB0001061206800F5D87000EB0110406800F448
:102AC0007F40000A9061206800F5D87000EB01108B
:102AD0004068000C5061206800F5D87000EB0110D0
:102AE00080681870206800F5D87000EB01108068CD
:102AF00000F47F40000A5870206800F5D87000EBA1
:102B00000110806800F47F00000C9870206800F5C8
:102B1000D87000EB01108068000ED870206800E0CB
:102B200031E000F5D87000EB0110C0681871206822
:102B300000F5D87000EB0110C06800F47F40000A77
:102B40005871206800F5D87000EB0110C06800F4DF
:102B50007F00000C9871206800F5D87000EB011020
:102B6000C068000ED87131B92068C06840F02000FC
:102B70002668F06005E02068006940F020002668C3
:102B8000306100205AE7606A40F4802060620120D2
:102B900054E72DE9F05F0446002520684669206867
:102BA000D0F80490206887682068D0F80CA02068CE
:102BB000D0F810B02068D0F8188006F00100002886
:102BC00055D007F00100C0B101202168886007F0EE
:102BD000020018B1204600F0F8FC0EE007F00400F7
:102BE00010B145F4006508E007F0080010B145F4A5
:102BF000805502E0204600F0E7FC07F48070C8B181
:102C00004FF480702168886007F4007018B1204686
:102C100000F0DDFC0EE007F4806010B145F40055D3
:102C200008E007F4006010B145F4804502E020465A
:102C300000F0CCFC07F48030C8B14FF4803021683C
:102C4000886007F4003018B1204600F0C2FC0EE0A6
:102C500007F4802010B145F4004508E007F4002097
:102C600010B145F4803502E0204600F0B1FC06F0DA
:102C7000080038B10AF0100020B145F400751020AA
:102C80002168C86006F0040040B10AF0080028B1CD
:102C900008202168C860204600F00CFA06F0020007
:102CA00038B12068C06800F0030010B1204600F081
:102CB00003FA06F0400038B10BF0100020B145F4E3
:102CC000806510202168086106F0200040B10BF0FB
:102CD000080028B1082021680861204600F042FC65
:102CE00006F0100038B12068006900F0030010B150
:102CF000204600F038FC06F4003040B109F0100026
:102D000028B1102021684860204600F02DFC06F410
:102D1000803040B109F0080028B1082021684860DF
:102D2000204600F057FC06F4004088B309F0040088
:102D300078B306F4807020B108F0010008B145F0C6
:102D4000010506F4007020B108F0020008B145F05A
:102D5000020506F4806020B108F0040008B145F0D7
:102D6000040506F40060A0B108F0700088B108F016
:102D70007000402817D006DC10280BD020280CD07B
:102D8000302819D10CE0502810D0602814D110E060
:102D90001DE019E045F008050FE045F010050CE0D6
:102DA00045F0200509E045F0400506E045F08005C6
:102DB00003E045F4807500E000BF00BF2068806933
:102DC00020F07000216888610420216848602DB1DE
:102DD000606A284360622046FFF71CFEBDE8F09F52
:102DE00070B504460CB9012070BD94F8200010B9EC
:102DF000204600F0AFF82068006820F0020021684B
:102E0000086000F0E9FF05460DE000F0E5FF401B1B
:102E10000A2808D9606A40F400306062052084F80E
:102E200020000120E0E72068406800F00200002850
:102E3000EBD12068006840F001002168086000F0D4
:102E4000CBFF05460DE000F0C7FF401B0A2808D95C
:102E5000606A40F400306062052084F820000120A0
:102E6000C2E72068406800F001000028EBD0207E17
:102E7000012806D12068006840F0800021680860C1
:102E800005E02068006820F0800021680860607E0E
:102E9000012806D12068006840F0400021680860E1
:102EA00005E02068006820F0400021680860A07EEE
:102EB000012806D12068006840F0200021680860E1
:102EC00005E02068006820F0200021680860E07EAE
:102ED000012806D12068006820F0100021680860F1
:102EE00005E02068006840F0100021680860207F3D
:102EF000012806D12068006840F0080021680860B9
:102F000005E02068006820F0080021680860607F04
:102F1000012806D12068006840F00400216808609C
:102F200005E02068006820F0040021680860D4E90A
:102F30000201084321690843616908436168491E29
:102F400008432168C86100206062012084F82000E5
:102F5000002049E710B586B00446142101A8FDF70A
:102F600051FA4E492068884241D14D480068401CC2
:102F70004B4908600846006801280FD100BF0020B7
:102F800000904848006840F00070464908600846D4
:102F9000006800F00070009000BF00BF00BF00207C
:102FA000009040481038006840F008003D49103952
:102FB00008600846006800F00800009000BF00BFED
:102FC000032001900220029000200390032004902F
:102FD0000920059001A9344800F0F0FD00220621E7
:102FE000142001F095FB142001F082FB54E02F49DE
:102FF0002068884250D100BF002000902948006816
:1030000040F08060274908600846006800F0806052
:10301000009000BF00BF22480068401C20490860A3
:103020000846006801280FD100BF002000901D480D
:10303000006840F000701B4908600846006800F016
:103040000070009000BF00BF00BF00200090154836
:103050001038006840F00200124910390860084634
:10306000006800F00200009000BF00BF60200190E7
:103070000220029000200390032004900920059074
:1030800001A90B4800F09AFD00220621402001F022
:103090003FFB402001F02CFB06B010BD0064004057
:1030A000FC01002040380240000C02400068004053
:1030B000000402407047000010B52DED048B8AB06B
:1030C000044601AB03AA00212046FFF7A4FCFD48FB
:1030D00084427DD140F203220398811A904259D054
:1030E00007DCFF2875D0A0F2012038B1012871D18A
:1030F0002AE001297AD00629F9D19DE0F24800881A
:1031000000B2F14908819DF805009DF8041040EADD
:103110000120ED4908809DF807009DF8061040EA5F
:10312000012000B2E84948809DF809009DF8081088
:1031300040EA012000B2E44988809DF80A008871C5
:1031400001200BF071F8E6E0DF48808A01B2DE482A
:1031500081839DF805009DF8041040EA0120DA49BA
:1031600088829DF807009DF8061040EA012001B210
:10317000D548C1829DF809009DF8081040EA012059
:1031800001B2D14801839DF80A10817602200BF02C
:103190004BF8C0E0CC48008D01B2CB4801869DF8C9
:1031A00005009DF8041040EA0120C74908859DF8F4
:1031B00007009DF8061040EA012001B2C24841858F
:1031C0009DF809009DF8081040EA012001B203E0D3
:1031D000A2E057E09EE009E0BB4881859DF80A1017
:1031E00080F82E1003200BF01FF894E0B648808F73
:1031F00001B2B548A0F844109DF805009DF80410F0
:1032000040EA0120B04988879DF807009DF8061024
:1032100040EA012001B2AC48C1879DF809009DF841
:10322000081040EA012001B2A748A0F840109DF81C
:103230000A1080F842106EE0A448008800B2A3494A
:1032400008819DF805009DF8041040EA01209F497F
:1032500008809DF807009DF8061040EA012000B2A2
:103260009A4948809DF809009DF8081040EA01201D
:1032700000B2964988809DF80A00887105200AF0FE
:10328000D3FF48E001A8018800EE101AB8EE400A0A
:103290008F4981ED000A9DF805109DF8042041EA50
:1032A000022100EE101AB8EEC00ADFED8A0A80EEA5
:1032B000201A874981ED011A9DF807109DF8062014
:1032C00041EA022109B200EE101AB8EEC00ADFEDA1
:1032D000810A80EE201A7E4981ED021A9DF80810BD
:1032E00000EE101AB8EE400A794981ED030A9DF804
:1032F000091000EE101AB8EE400A754981ED040A73
:103300009DF80A1000EE101AB8EE400A704981EDDF
:10331000050A00E000BF18E16F488442FBD1039822
:10332000A0F2022030B101282AD0032876D0082844
:1033300073D14BE06948008800B2684908819DF864
:1033400005009DF8041040EA0120644908809DF8BA
:1033500007009DF8061040EA012000B25F4948804E
:103360009DF809009DF8081040EA012000B25B4971
:1033700088809DF80A00887108200AF055FFE3E074
:103380005648808A01B2554881839DF805009DF812
:10339000041040EA0120514988829DF807009DF8F9
:1033A000061040EA012001B24C48C1829DF8090094
:1033B0009DF8081040EA012001B2484801839DF8B9
:1033C0000A10817609200AF02FFFBDE03F48808A6D
:1033D00001B23E4881839DF805009DF8041040EA43
:1033E00001203A4988829DF807009DF8061040EABE
:1033F000012001B23548C1829DF809009DF80810EE
:1034000040EA012001B2314801839DF80A1081761B
:1034100006200AF009FF97E000E094E030480088B9
:1034200000B22F4908819DF805009DF8041040EA7C
:1034300001202B4908809DF807009DF8061040EAFE
:10344000012000B2264948809DF809009DF8081027
:1034500040EA012000B2224988809DF80A00887164
:103460000846FEF76BF907200AF0DEFE1D4890EDD6
:10347000000A80ED010A1A490888FDF76EF941EC4F
:10348000190B9FED190B53EC102BFDF774F841EC61
:10349000180BFDF7B3F913490860084690ED000AD0
:1034A000D0ED010A30EE600ADFED110AB4EEE00A59
:1034B000F1EE10FA20DD0F480088401E00B20D49E1
:1034C00008802DE0741E0020C02600201027002058
:1034D000E427002000007A444C1E00204C270020E6
:1034E00038270020FC020020BA490C022B87A63F97
:1034F000000034431C030020164890ED000AD0ED74
:10350000010A30EE600ADFED140AB4EEE00AF1EED3
:1035100010FA05D211480088401C00B20F490880FB
:103520000E4800884FF4B47110FB01F000EE100A51
:10353000B8EEC00A0748D0ED000A30EE200A08486D
:1035400080ED000A00E000BF00BF0AB0BDEC048BB4
:1035500010BD0000FC020020000034C31C0300204A
:103560002003002070477047704770B5044694F8F8
:103570002000012822D1022084F820002068006861
:1035800020F001002168086000F026FC05460DE0EF
:1035900000F022FC401B0A2808D9606A40F4003081
:1035A0006062052084F82000012070BD206840681A
:1035B00000F001000028EBD16062F6E7606A40F499
:1035C000002060620120F0E7704770477047704745
:1035D00070477047704710B504460CB9012010BD04
:1035E000607920B900202071204600F007F8022001
:1035F0006071012060710020F1E7000008B50A4AFF
:10360000016891420FD100BF00210091074909686C
:1036100041F48051054A11601146096801F4805156
:10362000009100BF00BF08BD0030024030380240AA
:10363000F8B50446002000908C4800684FF41651FD
:10364000B0FBF1F7A56D2E6894F85C100820884057
:10365000304098B12068006800F0040070B1206824
:10366000006820F004002168086094F85C100820CD
:103670008840A860606D40F00100606594F85C10BF
:1036800001208840304068B12068406900F0800027
:1036900040B194F85C1001208840A860606D40F053
:1036A0000200606594F85C1004208840304068B1E6
:1036B0002068006800F0020040B194F85C1004201B
:1036C0008840A860606D40F00400606594F85C106C
:1036D00010208840304078B32068006800F008006F
:1036E00050B394F85C1010208840A86020680068EF
:1036F00000F4802080B12068006800F4002028B920
:10370000206CC8B12046216C884715E0A06C98B1A8
:103710002046A16C88470FE02068006800F48070A4
:1037200028B92068006820F0080021680860206C33
:1037300010B12046216C884794F85C102020884006
:103740003040002865D02068006800F01000002894
:103750005FD094F85C1020208840A86094F8350071
:10376000052828D12068006820F01600216808602C
:103770002068406920F0800021684861206C08B909
:10378000A06C28B12068006820F00800216808605B
:1037900094F85C103F208840A86000BF002084F8A7
:1037A000340000BF012084F83500206D10B12046A0
:1037B000216D8847F8BD2068006800F4802080B142
:1037C0002068006800F4002028B9606C10B1204621
:1037D000616C88471DE0E06BD8B12046E16B8847FB
:1037E00017E02068006800F4807068B920680068FD
:1037F00020F010002168086000BF002084F8340029
:1038000000BF012084F83500E06B10B12046E16B69
:103810008847606D38B3606D00F00100F0B105209D
:1038200084F835002068006820F0010021680860F5
:1038300000BF0098401C0090B84200D905E0206805
:10384000006800F001000028F3D100BF00BF002095
:1038500084F8340000BF012084F83500E06C10B11A
:103860002046E16C884700BFA4E70000B8030020B1
:103870002DE9F0410446002500F0AEFA074614B9E0
:103880000120BDE8F081606A00B100BF00BF0020E8
:1038900084F8340000BF022084F8350020680068F6
:1038A00020F00100216808600AE000F095FAC01BD2
:1038B000052805D920206065032084F83500E0E75D
:1038C0002068006800F001000028EED1206805683B
:1038D00021480540D4E901010843E1680843216912
:1038E000084361690843A1690843E1690843216A03
:1038F00008430543606A042803D1D4E90B01084357
:103900000543206805602068456925F00705606A61
:103910000543606A04280DD1A06A0543E06A48B1F6
:103920002046FEF719FC28B140206065012084F88C
:103930003500A6E7206845612046FEF7F3FB064602
:1039400094F85C103F208840B06000206065012042
:1039500084F83500002094E73F8010F02DE9F04115
:1039600004460E460127002500BF2548007E012899
:1039700002D10220BDE8F08101202149087600BF74
:103980004CF25030FEF772FD0746002F31D1401E39
:103990003060206801280FD1207C6168FEF7B2FCFE
:1039A0004CF25030FEF762FD07461648006820F0E2
:1039B0000400144908601AE0A56812E0217C28463A
:1039C000FEF736FC4CF25030FEF750FD07460D482E
:1039D000006820F0FA000B4908600FB1356005E07F
:1039E0006D1CD4E902100844A842E7D800BFFEF7D6
:1039F0004DFC00BF00200249087600BF3846B9E7F9
:103A000048280020103C02400348006840F0004075
:103A10000149086000207047103C02402DE9F04148
:103A200006460F4614461D464FF0010800BF1F48CA
:103A3000007E012802D10220BDE8F08101201B494F
:103A4000087600BF4CF25030FEF710FD8046B8F10A
:103A5000000F23D126B9E1B23846FEF76BFC12E025
:103A6000012E04D1A1B23846FEF78CFC0BE0022EE9
:103A700004D121463846FEF799FC04E022462B4645
:103A80003846FEF769FC4CF25030FEF7EFFC8046FA
:103A90000748006820F001000549086000BF0020C9
:103AA0000249087600BF4046C6E7000048280020CB
:103AB000103C024000200949096801F0004159B159
:103AC0000749064A0C3A1160064911600349096822
:103AD00001F0004101B1012070470000103C02409C
:103AE00023016745AB89EFCD10B50446102C14D1E6
:103AF0000D200AF099FB2248007840F0010020498F
:103B000008702048007840F001001E4908701E48E7
:103B10000078A0B30DF07CFF31E0202C0ED10C20FA
:103B20000AF082FB1948007840F00100174908703C
:103B30001548007818B30DF06BFF20E0082C09D170
:103B40000E200AF071FB1248007840F00100104985
:103B5000087014E0012C12D111F054FC01280ED091
:103B60000C490D48006810F0F5FD0A48006830B1B6
:103B700020070A490860BFF34F8FBFF36F8F10BD56
:103B800076010020770100207901002075010020D6
:103B900078010020EC0100205001002004ED00E03D
:103BA00010B5044604480068204020B10248046073
:103BB0002046FFF799FF10BD143C0140F8B50246BE
:103BC0000B460025002400200021DCE0012606FA37
:103BD00001F51E6806EA0504AC4273D15E68022E48
:103BE00002D05E68122E13D1CF0802F1200656F8DB
:103BF00027004E07F70E0F26BE40B0434F07FF0EBB
:103C00001E69BE403043CF0802F1200646F8270067
:103C100010684F000326BE40B0431E7906F003062D
:103C20004F00BE40304310605E68012E08D05E68D1
:103C3000022E05D05E68112E02D05E68122E13D1BE
:103C400090684F000326BE40B0434F00DE68BE4080
:103C500030439060506801268E40B0431E79C6F311
:103C600000168E4030435060D0684F000326BE409F
:103C7000B0434F009E68BE403043D0605E6806F09F
:103C80008056B6F1805F7DD100BF00260096404E81
:103C9000366846F480463E4F3E603E46366806F43F
:103CA0008046009600BF00BF3A4E8F0856F82700A6
:103CB0008E07370F0F26BE40B043374EB24202D1B7
:103CC000002624E05EE0354EB24201D101261EE01E
:103CD000334EB24201D1022619E0324EB24201D136
:103CE000032614E0304EB24201D104260FE02F4EDD
:103CF000B24201D105260AE02D4EB24201D106267C
:103D000005E02C4EB24201D1072600E008268F07BD
:103D10003F0FBE4030431F4E8F0846F82700264E07
:103D20003068A0435E6806F48036B6F5803F00D167
:103D30002043214E3060361D3068A0435E6806F493
:103D40000036B6F5003F00D120431B4E361D3060D3
:103D5000361D3068A0435E6806F48016B6F5801FF5
:103D600000D12043144E08363060361D3068A04321
:103D70005E6806F40016B6F5001F00D120430E4E13
:103D80000C363060491C1029FFF420AFF8BD00004C
:103D9000443802400838014000000240000402405C
:103DA00000080240000C02400010024000140240D3
:103DB00000180240001C0240003C0140024613690A
:103DC0000B400BB1012000E0002070470AB1816177
:103DD00001E00B04836170470148006870470000F0
:103DE000AC03002070B504460CB9012070BD94F8F6
:103DF0003D0028B9002084F83C00204600F0FAFA83
:103E0000242084F83D002068006820F0010021682B
:103E1000086000F065FE05465C496068884206D887
:103E20005B48854201D2012007E0002005E05948A7
:103E3000854201D2012000E00020012800D1D5E711
:103E40005548B5FBF0F62068406820F03F0030434D
:103E5000216848604D496068884201D8701C07E0BD
:103E60004FF4967070434FF47A71B0FBF1F0401C40
:103E70002168096A21F03F0108432168086243492B
:103E80006068884214D8681E61684900B0FBF1F090
:103E9000401CC0F30B00042801D204203DE0681E42
:103EA00061684900B0FBF1F0401CC0F30B0034E046
:103EB000A06838B9681E616801EB4101B0FBF1F000
:103EC000401C0AE0681E616801EBC10202EB0111AF
:103ED000B0FBF1F0401C40F48040C0F30B0008B987
:103EE00001201AE0A06848B9681E616801EB410131
:103EF000B0FBF1F0401CC0F30B000CE0681E6168E1
:103F000001EBC10202EB0111B0FBF1F0401CC0F368
:103F10000B0040F4804040F400402168C9694CF631
:103F2000FF72914308432168C861D4E9070108433F
:103F30002168096821F0C001084321680860D4E9BC
:103F4000031008432168896848F2FF32914308430F
:103F500021688860D4E9050108432168C96821F017
:103F6000FF0108432168C8602068006840F0010034
:103F70002168086000202064202084F83D00002093
:103F8000206384F83E0000BF30E70000A0860100F7
:103F900080841E0000093D0040420F002DE9FC5FB7
:103FA00004460F4690469946DDE90CAB0E9EFFF79E
:103FB00013FF054694F83D00202870D119230122F3
:103FC000B0492046009502F051FA10B10220BDE838
:103FD000FC9F00BF94F83C00012801D10220F6E7C5
:103FE000012084F83C0000BF2068006800F0010058
:103FF00028B92068006840F0010021680860206846
:10400000006820F4006021680860222084F83D00E8
:10401000402084F83E0000202064C4F824A0A4F8C6
:104020002AB0608D20859848E0624B46424639466A
:104030002046CDE9006502F0E9F808B10120C6E7A5
:10404000208D88B900BF0020019020684069019050
:1040500020688069019000BF00BF2068006840F4BC
:1040600000702168086040E0208D012818D1206888
:10407000006820F480602168086000BF0020019083
:1040800020684069019020688069019000BF00BFEE
:104090002068006840F400702168086025E0EFE0C7
:1040A000208D022816D12068006820F480602168E5
:1040B00008602068006840F400602168086000BF64
:1040C000002001902068406901902068806901907B
:1040D00000BF0AE000BF0020019020684069019005
:1040E00020688069019000BF00BFBAE0208D0328DE
:1040F0007ED8208D012815D12A463146204602F06F
:104100005AFA08B1012062E720680069616A087004
:10411000606A401C6062208D401E2085608D401EBC
:1041200060859EE0208D02282AD13346002257491F
:104130002046009502F09AF908B1012047E720686F
:10414000006840F400702168086020680069616AB6
:104150000870606A401C6062208D401E2085608D62
:10416000401E608520680069616A0870606A401CB2
:104170006062208D401E2085608D401E608570E04D
:104180003346002241492046009502F06FF908B1FC
:1041900001201CE72068006820F480602168086026
:1041A00020680069616A0870606A401C6062208D46
:1041B000401E2085608D401E6085334600223349B5
:1041C0002046009502F052F908B10120FFE6206870
:1041D000006840F400702168086020680069616A26
:1041E0000870606A401C6062208D401E208500E0DF
:1041F00010E0608D401E608520680069616A08706B
:10420000606A401C6062208D401E2085608D401ECB
:10421000608526E02A463146204602F0CCF908B1F6
:104220000120D4E620680069616A0870606A401C59
:104230006062208D401E2085608D401E6085206854
:104240004069C0F3800060B120680069616A08704D
:10425000606A401C6062208D401E2085608D401E7B
:104260006085208D00287FF441AF202084F83D0038
:10427000002084F83E0000BF84F83C0000BFA6E6A2
:104280000220A4E6020010000000FFFF040001006D
:104290002DE9FC5F04460F4690469946DDE90CABDC
:1042A0000E9EFFF799FD054694F83D0020287DD12C
:1042B000192301224D492046009502F0D7F810B18C
:1042C0000220BDE8FC9F00BF94F83C00012801D10A
:1042D0000220F6E7012084F83C0000BF2068006857
:1042E00000F0010028B92068006840F00100216852
:1042F00008602068006820F40060216808602120C0
:1043000084F83D00402084F83E0000202064C4F87A
:1043100024A0A4F82AB0608D20853548E0624B4681
:10432000424639462046CDE9006502F00BF808B157
:104330000120C6E731E02A463146204602F07BF9EB
:1043400050B1206C042805D12068006840F400704A
:10435000216808600120B4E7606A0078216808617C
:10436000606A401C6062208D401E2085608D401E6A
:10437000608520684069C0F3800070B1208D60B115
:10438000606A007821680861606A401C6062208D64
:10439000401E2085608D401E6085208D0028CAD17A
:1043A0002A463146204602F033F800E01CE050B1C6
:1043B000206C042805D12068006840F40070216852
:1043C000086001207DE72068006840F400702168E3
:1043D0000860202084F83D00002084F83E0000BFE3
:1043E00084F83C0000BF6CE702206AE7020010007E
:1043F0000000FFFF10B586B00446142101A8FCF7A9
:1044000001F873492068884230D100BF0020009035
:104410007048006840F002006E4908600846006875
:1044200000F00200009000BF00BF4FF44070019008
:104430001220029001200390032004900420059094
:1044400001A96548FFF7BAFB00BF00200090614852
:104450001030006840F400105E49103108600846D2
:10446000006800F40010009000BFAFE05B492068D6
:10447000884259D100BF002000905648006840F0A3
:104480002000544908600846006800F020000090B1
:1044900000BF00BF03200190122002900120039072
:1044A000032004900420059001A94D48FFF786FBE6
:1044B00000BF0020009047481030006840F48000A2
:1044C0004449103108600846006800F480000090FC
:1044D00000BF00BF4348444908604FF06060486037
:1044E0004021414881600021C1604FF48061016139
:1044F000002141618161C1614FF4003101620021FD
:104500004162FFF7B5F908B1FDF790FE00BF3648EC
:104510006063846300BF35480068406840F4006011
:1045200032490968486051E03149206888424DD1DC
:1045300000BF002000902748006840F00400254993
:1045400008600846006800F00400009000BF00BF4B
:1045500000BF002000900846006840F0010008609D
:104560000846006800F00100009000BF00BF481539
:104570000190122002900120039003200490042057
:10458000059001A91B48FFF719FB4FF480700190BB
:104590001220029001200390032004900420059033
:1045A00001A91548FFF70AFB00BF00200090094849
:1045B0001030006840F400000649103108600846D9
:1045C000006800F40000009000BF00BF06B010BDFE
:1045D00000540040303802400004024000580040BF
:1045E00000140240B8600240981F0020F01E002016
:1045F000005C0040000802400000024003480068E0
:10460000034909780844014908607047AC03002059
:10461000B403002010B50D48006840F400700B4949
:1046200008600846006840F480600860084600683A
:1046300040F480700860032000F0A8F80F2000F01C
:1046400007F800F02BF8002010BD0000003C0240ED
:1046500070B504460E4800784FF47A71B1FBF0F063
:104660000C490968B1FBF0F5284600F0E0FF08B1FD
:10467000012070BD102C07D200222146501E00F0F0
:1046800047F80548046001E00120F2E70020F0E768
:10469000B4030020B8030020B003002008B500BF19
:1046A000002000901148006840F480400F490860E5
:1046B0000846006800F48040009000BF00BF00BFC3
:1046C00000200090081F006840F08050091F08601B
:1046D0000846006800F08050009000BF00BF002234
:1046E0000F21901E00F014F808BD0000443802406D
:1046F00001460846002809DB00F01F0301229A400A
:1047000043099B0003F1E023C3F8002100BF704779
:104710002DE9F05F80460D461646002706F0C6FCE0
:10472000074639462A46334601F00700C0F1070A1A
:10473000BAF1040F02D94FF0040A01E0C0F1070AF0
:10474000D14600F1040ABAF1070F02D24FF0000A75
:1047500001E0A0F1030AD4464FF0010A0AFA09FA6F
:10476000AAF1010A0AEA020A0AFA0CFA4FF0010B4E
:104770000BFA0CFBABF1010B0BEA030B4AEA0B043F
:104780002146404606F09AFCBDE8F09F00BF00F0CD
:104790000702064B19684FF6FF031940044B0B4301
:1047A00043EA0221014B196000BF70470CED00E0A5
:1047B0000000FA05F8B5044600250026207800F030
:1047C000010020B9207800F0040004282FD1002037
:1047D0005B498866FFF700FB054606E0FFF7FCFA39
:1047E000401B022801D90320F8BD56480068C0F3D9
:1047F000C0600028F2D160688101207A41EA00702F
:1048000050498431086001204D498866FFF7E4FA79
:10481000054606E0FFF7E0FA401B022801D9032015
:10482000E2E748480068C0F3C0600028F2D0207872
:1048300000F0020002287DD100BF00200090414816
:104840004030006840F080503E49403108600846E2
:10485000006800F08050009000BF00BF3A48006838
:1048600040F4807038490860FFF7B6FA054606E064
:10487000FFF7B2FA401B022801D90320B4E73248FF
:10488000006800F480700028F2D02E487030006874
:1048900000F440764EB3A08900F44070B04224D0BA
:1048A00028487030006820F44076012027490860CD
:1048B00000200860234870300660006800F00100A6
:1048C00098B1FFF789FA054608E0FFF785FA401B23
:1048D00041F28831884201D9032085E719487030B8
:1048E0000068C0F340000028EFD000BFA08900F4AA
:1048F0004070B0F5407F0CD112480830006820F4B9
:10490000F810134AE168114008430E490831086065
:1049100007E00C480830006820F4F8100949083115
:104920000860084870300068A189C1F30B01084392
:10493000044900E002E07031086000BF002053E746
:10494000000047420038024000700040400E4742DD
:10495000FFFCFF0F70B504460D460CB9012070BD79
:104960005848006800F00F00A84209D255490D7060
:104970000846006800F00F00A84201D00120EEE7D1
:10498000207800F0020002281DD1207800F00400F9
:10499000042805D14C48006840F4E0504A490860BA
:1049A000207800F00800082805D14748006840F446
:1049B0006040454908604448006820F0F000A16864
:1049C000084341490860207800F00100A8B36068FE
:1049D000012807D13C4808380068C0F34040B8B906
:1049E0000120BCE76068022802D06068032807D174
:1049F000354808380068C0F3406048B90120AEE788
:104A0000314808380068C0F3400008B90120A6E723
:104A10002D48006820F00300616808432A490860B7
:104A2000FFF7DAF9064609E0FFF7D6F9801B41F2F5
:104A30008831884202D9032091E707E022480068C4
:104A400000F00C006168B0EB810FEDD11D480068EB
:104A500000F00F00A84209D91A490D7008460068F5
:104A600000F00F00A84201D0012078E7207800F084
:104A70000400042807D11448006820F4E050E168DD
:104A8000084311490860207800F00800082808D180
:104A90000D48006820F46040216940EAC1000A49DD
:104AA000086000F03DF808490968C1F30311074A9E
:104AB000515CC840064908600F20FFF7C9FD00207F
:104AC0004DE70000003C024008380240245D010828
:104AD000B80300200148006870470000B8030020B8
:104AE00000B5FFF7F7FF04490968C1F38221034AC3
:104AF000515CC84000BD000008380240345D010828
:104B000000B5FFF7E7FF04490968C1F34231034AE2
:104B1000515CC84000BD000008380240345D010807
:104B20002DE9F047002400250026A146254800680D
:104B300000F00C0020B1042805D008283AD105E087
:104B4000DFF8849039E0DFF8849036E01D48001FDC
:104B5000006800F03F041B48001F006800F480005C
:104B600078B11A481749091F0968C1F38811A0FBD9
:104B700001700146224600233846FBF7F9FB054643
:104B80000EE011480F49091F0968C1F38811A0FB05
:104B900001700146224600233846FBF7E9FB054633
:104BA0000848001F0068C0F30140401C4600B5FBE8
:104BB000F6F902E0DFF8109000BF00BF4846BDE8FC
:104BC000F0870000083802400024F400001BB70002
:104BD000F8B504460CB90120F8BD207800F00100BA
:104BE000002874D0F948006800F00C0004280DD0AB
:104BF000F648006800F00C00082813D1F348001FA5
:104C0000006800F48000B0F5800F0BD1EF48083841
:104C10000068C0F34040002859D06068002856D191
:104C20000120D9E700BF6068B0F5803F08D1E748B0
:104C30000838006840F48030E449083908601EE014
:104C40006068B0F5A02F0DD1E0480838006840F446
:104C50008020DE49083908600846006840F480304A
:104C600008600CE0D9480838006820F48030D74943
:104C7000083908600846006820F48020086000BFFA
:104C8000606890B1FFF7A8F8054606E0FFF7A4F8C2
:104C9000401B642801D903209EE7CC4808380068EF
:104CA000C0F340400028F1D011E0FFF795F8054629
:104CB00006E0FFF791F8401B642801D903208BE739
:104CC000C24808380068C0F340400028F1D120787D
:104CD00000F0020002285FD1BC48006800F00C0020
:104CE00058B1BA48006800F00C0008281CD1B74839
:104CF000001F006800F48000B0B9B44808380068AC
:104D0000C0F3400020B1E068012801D0012063E732
:104D1000AE480838006820F0F800216940EAC10078
:104D2000AA490839086037E0E06800B30120A849C3
:104D30000860FFF751F8054606E0FFF74DF8401B05
:104D4000022801D9032047E7A04808380068C0F3CB
:104D500040000028F1D09D480838006820F0F80095
:104D6000216940EAC10099490839086014E000202F
:104D700097490860FFF730F8054606E0FFF72CF882
:104D8000401B022801D9032026E790480838006814
:104D9000C0F340000028F1D1207800F00800082876
:104DA0002CD16069A8B101208A490860FFF714F886
:104DB000054606E0FFF710F8401B022801D9032042
:104DC0000AE782486C300068C0F340000028F1D048
:104DD00014E000207F490860FEF7FEFF054606E06C
:104DE000FEF7FAFF401B022801D90320F4E67748BA
:104DF0006C300068C0F340000028F1D1207800F04A
:104E00000400042870D1002670483830006800F093
:104E1000805090B900BF002000906C483830006886
:104E200040F080506949383108600846006800F059
:104E30008050009000BF00BF01266748006800F462
:104E40008070B0B96448006840F4807062490860BE
:104E5000FEF7C2FF054606E0FEF7BEFF401B022834
:104E600001D90320B8E65C48006800F4807000288F
:104E7000F2D000BFA068012808D15448683000680B
:104E800040F001005149683108601DE0A068052824
:104E90000DD14E486830006840F004004B4968313D
:104EA00008600846006840F0010008600CE04748D0
:104EB0006830006820F00100444968310860084605
:104EC000006820F00400086000BFA068A8B1FEF7E9
:104ED00083FF054609E0FEF77FFF401B41F2883162
:104EE000884202D9032077E626E038486830006817
:104EF000C0F340000028EED013E0FEF76DFF05463A
:104F000008E0FEF769FF401B41F28831884201D971
:104F1000032061E62D4868300068C0F34000002897
:104F2000EFD1012E07D129483830006820F0805099
:104F300026493831086000BFA069B8B3234800682B
:104F400000F00C0008285ED0A069022846D100209D
:104F50001F490866FEF740FF054606E0FEF73CFFE6
:104F6000401B022801D9032036E61848083800689B
:104F7000C0F340600028F1D1D4E907010843616A19
:104F800040EA81110122A06AC2EB500041EA0041CF
:104F90002C20005D41EA00600C49091F08600120D7
:104FA0000B490866FEF718FF054607E02DE0FEF7FF
:104FB00013FF401B022801D903200DE603480838DF
:104FC0000068C0F340600028F1D01EE008380240BD
:104FD00000004742800E47420070004000200C490C
:104FE0000866FEF7F9FE054606E0FEF7F5FE401BF3
:104FF000022801D90320EFE506480068C0F34060AD
:105000000028F2D101E00120E6E50020E4E50000FF
:10501000000047420038024010B504460CB9012098
:1050200010BD607920B900202071204600F00EF8F4
:10503000022060712068006840F004002168086068
:10504000012060710020A06000BFE9E708B50A4AAE
:10505000016891420FD100BF002100910749096802
:1050600041F04001054A11601146096801F0400114
:10507000009100BF00BF08BD000806503438024050
:1050800010B504460CB9012010BD607F20B9002086
:105090002077204600F060F80220607700BFCA2029
:1050A0002168486253202168486200BF204602F010
:1050B00003FD40B100BFFF202168486200BF04200B
:1050C00060770120E0E72068806822490840216875
:1050D00088602169606808436169084321688968BC
:1050E0000843216888602168E068086120680169D8
:1050F000208941EA0040216808612068C06820F0EA
:1051000080002168C8602068806800F0200060B9D5
:10511000204600F02DF840B100BFFF202168486212
:1051200000BF042060770120AEE72068006C20F407
:105130008020216808642068006CA1690843216808
:10514000086400BFFF202168486200BF012060772B
:10515000002099E7BFFF8FFF034A0168914202D107
:105160000121024A11607047002800403C0E47426E
:1051700070B5044600252068C06820F0A0002168B2
:10518000C860FEF729FE054607E0FEF725FE401B36
:10519000B0F57A7F01D9032070BD2068C06800F0A7
:1051A00020000028F1D00020F6E710B504460CB925
:1051B000012010BD606A00B900BF0021A16294F80F
:1051C000510028B9002084F85000204600F034F83F
:1051D000022084F851002068006820F04000216817
:1051E0000860D4E901010843E168084321690843E4
:1051F00061690843218B01F400710843E1690843A8
:10520000216A0843A16A0843216808600421A06953
:1052100001EA1040616A0843216848602068C0695B
:1052200020F400602168C86100206065012084F8D6
:1052300051000020BDE7000010B586B004461421DF
:1052400001A8FBF7DFF86749206888427ED100BFDC
:10525000002000906448006840F480506249086073
:105260000846006800F48050009000BF00BF00BFF7
:10527000002000905C481438006840F002005A4951
:10528000143908600846006800F00200009000BF72
:1052900000BF00BF002000900846006840F00100F9
:1052A00008600846006800F00100009000BF00BFE1
:1052B0001820019002200290012003900320049006
:1052C0000520059001A94948FEF778FC802001904F
:1052D00002200290012003900320049005200590F5
:1052E00001A94348FEF76AFC4248434908604FF071
:1052F000C0604860002140488160C1604FF4806117
:105300000161002141618161C1614FF4403101625D
:1053100000214162FEF7ACFA08B1FCF787FF00BF3D
:105320003548E064846300BF324818303349086070
:105330004FF0C06048604021304881600021C1606A
:105340004FF4806101610021416100E010E0816162
:10535000C1614FF40031016200214162FEF788FA19
:1053600008B1FCF763FF00BF2448A064846336E003
:1053700023492068884232D100BF002000901A489B
:10538000001F006840F480401749091F0860084664
:10539000006800F48040009000BF00BF00BF002004
:1053A000009011481438006840F002000E4914398A
:1053B00008600846006800F00200009000BF00BFCF
:1053C0004FF46040019002200290012003900320DE
:1053D00004900520059001A90448FEF7EFFB06B0F4
:1053E00010BD00000030014044380240000402407B
:1053F0000000024040640240D820002038210020F4
:10540000003800402DE9FF5F0446884691461D465E
:105410000E9E012002900020019000BF94F85000E1
:10542000012803D1022004B0BDE8F09F012084F8D8
:10543000500000BFFEF7D0FC074694F851B06068FA
:105440000390AA46BBF1010F0BD00398B0F5827F01
:1054500004D1A06810B9BBF1040F02D00220019062
:10546000DBE0B8F1000F03D0B9F1000F00D015B99F
:1054700001200190D1E094F85100042802D00520C9
:1054800084F8510000206065C4F83890E587A5874E
:10549000C4F83080E586A5862064606420680068D2
:1054A00000F04000402805D02068006840F040002F
:1054B00021680860E068B0F5006F4AD1606810B1FB
:1054C000BAF1010F09D1206B00882168C860206BF8
:1054D000801C2063E08E401EE08633E020688068F8
:1054E00000F00200022810D1E08E70B1029801286D
:1054F0000BD1206B00882168C860206B801C206362
:10550000E08E401EE086002002902068806800F057
:10551000010068B1E08F58B12068C068A16B0880B5
:10552000A06B801CA063E08F401EE08701200290EA
:10553000FEF752FCC01BB04204D3701C10B1032014
:1055400001906AE0E08E0028C8D1E08F0028C5D124
:105550004AE0606810B1BAF1010F09D1206B007800
:1055600021680873206B401C2063E08E401EE0869B
:1055700034E02068806800F00200022810D1E08E3C
:1055800070B1029801280BD1206B00782168087354
:10559000206B401C2063E08E401EE08600200290BD
:1055A0002068806800F0010068B1E08F58B1206881
:1055B000C068A16B0870A06B401CA063E08F401E08
:1055C000E08701200290FEF707FCC01BB04201D328
:1055D000701C00B916B9032001901EE0E08E00286F
:1055E000C7D1E08F0028C4D13A463146204604F0A6
:1055F000E1FE20B101200190202060650DE0A0684F
:1056000050B900BF002000902068C068009020685A
:105610008068009000BF00BF00BF012084F85100E7
:1056200000BF002084F8500000BF0198FBE670B571
:1056300004462546681EB0F1807F01D301200FE0AB
:10564000681E4FF0E02148610F214FF0FF3005F058
:1056500035FD00204FF0E02188610720086100201F
:1056600070BD10B50346002200BF93F83C0001282E
:1056700001D1022010BD012083F83C0000BF22F0C0
:10568000FF00CC6840EA040222F440708C6840EAD3
:10569000040222F480604C6840EA040222F40060B4
:1056A0000C6840EA040222F480500C6940EA0402CB
:1056B00022F400504C6940EA040222F48040CC6994
:1056C00040EA04021868426400BF002083F83C00EE
:1056D00000BF00BFCEE710B5024600BF92F83C0005
:1056E000012801D1022010BD012082F83C0000BF3A
:1056F000022082F83D00106843681068846823F037
:1057000070030868034324F0800448680443106869
:10571000436010688460012082F83D0000BF0020D3
:1057200082F83C0000BF00BFDDE710B504460CB9AD
:10573000012010BD94F83D0028B9002084F83C00F9
:10574000204600F00DF8022084F83D00211D20685D
:1057500004F05CFF012084F83D000020E9E7000030
:1057600008B53F4A016891420FD100BF0021009166
:105770003C49096841F001013A4A11601146096843
:1057800001F00101009100BF69E0374A01689142D0
:1057900011D100BF002100913249091F096841F071
:1057A0000201304A121F11601146096801F002011E
:1057B000009100BF53E02D4A0168914211D100BF12
:1057C000002100912749091F096841F00401254A79
:1057D000121F11601146096801F00401009100BF19
:1057E0003DE0234A0168914211D100BF00210091A0
:1057F0001C49091F096841F008011A4A121F11606B
:105800001146096801F00801009100BF27E0194A1C
:10581000016891420FD100BF002100911149096830
:1058200041F002010F4A11601146096801F00201BE
:10583000009100BF13E0104A016891420FD100BFF0
:10584000002100910749096841F40031054A1160BF
:105850001146096801F40031009100BF00BF08BD86
:1058600000000140443802400004004000080040AD
:10587000000C0040000401400044014001460220A9
:1058800081F83D000868806800F00702062A05D00C
:105890000868006840F001000B681860012081F87A
:1058A0003D00002070472DE9F04104460D4600BF41
:1058B00094F83C00012802D10220BDE8F0810120CB
:1058C00084F83C0000BF022084F83D002068866810
:1058D00026F0770626F47F462068866028685028E0
:1058E00033D00CDC202850D004DC00284BD010280A
:1058F00051D149E0302849D040284CD139E06028C6
:105900002DD0702807D0B0F5805F03D0B0F5005FD0
:1059100041D10DE040E0D5E902136A68206804F047
:10592000F2FE2068866846F077062068866033E0DD
:10593000D5E902136A68206804F0E5FE20688068F3
:1059400040F480402168886026E0EA686968206841
:1059500004F0CAFF5021206804F0E0FE1CE0EA6871
:105960006968206804F0D3FF6021206804F0D6FE47
:1059700012E0EA686968206804F0B6FF40212068F8
:1059800004F0CCFE08E000BF00BF00BF296820681B
:1059900004F0C4FE00E000BF00BF012084F83D0019
:1059A00000BF002084F83C0000BF00BF85E7000076
:1059B00010B586B00446142101A8FAF723FD9949D1
:1059C0002068884232D100BF0020009096480068CD
:1059D00040F01000944908600846006800F010008C
:1059E000009000BF00BF4FF4D4400190022002900D
:1059F00001200390022004900120059001A98B480A
:105A0000FEF7DCF88A48FFF739FF0021884800F0EC
:105A1000CFF90421864800F0CBF90821844800F032
:105A2000C7F90C21824800F0C3F9F9E081492068E8
:105A3000884224D100BF002000907B48006840F0DD
:105A40000400794908600846006800F004000090EE
:105A500000BF00BF88150190022002900120039032
:105A600002200490059001A97348FEF7A7F8734837
:105A7000FFF704FF0821714800F09AF9D0E070495F
:105A80002068884226D100BF002000906648006848
:105A900040F00800644908600846006800F008000B
:105AA000009000BF00BF4FF48040019002200290A0
:105AB00001200390032004900220059001A9614871
:105AC000FEF77CF86048FFF7D9FE08215E4800F039
:105AD0006FF9A5E05D49206888422DD100BF002004
